{
  "address": "0x1a9ee9089b6431510144B8eE01859E39C0359101",
  "abi": [
    {
      "inputs": [],
      "name": "InitializationFailed",
      "type": "error"
    },
    {
      "anonymous": false,
      "inputs": [
        {
          "indexed": false,
          "internalType": "address",
          "name": "account",
          "type": "address"
        },
        {
          "indexed": false,
          "internalType": "address",
          "name": "implementation",
          "type": "address"
        },
        {
          "indexed": false,
          "internalType": "uint256",
          "name": "chainId",
          "type": "uint256"
        },
        {
          "indexed": false,
          "internalType": "address",
          "name": "tokenContract",
          "type": "address"
        },
        {
          "indexed": false,
          "internalType": "uint256",
          "name": "tokenId",
          "type": "uint256"
        },
        {
          "indexed": false,
          "internalType": "uint256",
          "name": "salt",
          "type": "uint256"
        },
        {
          "indexed": false,
          "internalType": "address",
          "name": "calendarAddress",
          "type": "address"
        },
        {
          "indexed": false,
          "internalType": "uint256",
          "name": "timestamp",
          "type": "uint256"
        }
      ],
      "name": "AccountCreated",
      "type": "event"
    },
    {
      "inputs": [
        {
          "internalType": "address",
          "name": "implementation",
          "type": "address"
        },
        {
          "internalType": "uint256",
          "name": "chainId",
          "type": "uint256"
        },
        {
          "internalType": "address",
          "name": "tokenContract",
          "type": "address"
        },
        {
          "internalType": "uint256",
          "name": "tokenId",
          "type": "uint256"
        },
        {
          "internalType": "uint256",
          "name": "salt",
          "type": "uint256"
        }
      ],
      "name": "account",
      "outputs": [
        {
          "internalType": "address",
          "name": "",
          "type": "address"
        }
      ],
      "stateMutability": "view",
      "type": "function"
    },
    {
      "inputs": [],
      "name": "accountCounter",
      "outputs": [
        {
          "internalType": "uint256",
          "name": "",
          "type": "uint256"
        }
      ],
      "stateMutability": "view",
      "type": "function"
    },
    {
      "inputs": [
        {
          "internalType": "address",
          "name": "",
          "type": "address"
        }
      ],
      "name": "accounts",
      "outputs": [
        {
          "internalType": "address",
          "name": "implementation",
          "type": "address"
        },
        {
          "internalType": "uint256",
          "name": "chainId",
          "type": "uint256"
        },
        {
          "internalType": "address",
          "name": "tokenContract",
          "type": "address"
        },
        {
          "internalType": "uint256",
          "name": "tokenId",
          "type": "uint256"
        },
        {
          "internalType": "uint256",
          "name": "salt",
          "type": "uint256"
        },
        {
          "internalType": "address",
          "name": "calendarAddress",
          "type": "address"
        }
      ],
      "stateMutability": "view",
      "type": "function"
    },
    {
      "inputs": [],
      "name": "calendarAddress",
      "outputs": [
        {
          "internalType": "address",
          "name": "",
          "type": "address"
        }
      ],
      "stateMutability": "view",
      "type": "function"
    },
    {
      "inputs": [
        {
          "internalType": "address",
          "name": "implementation",
          "type": "address"
        },
        {
          "internalType": "uint256",
          "name": "chainId",
          "type": "uint256"
        },
        {
          "internalType": "address",
          "name": "tokenContract",
          "type": "address"
        },
        {
          "internalType": "uint256",
          "name": "tokenId",
          "type": "uint256"
        },
        {
          "internalType": "uint256",
          "name": "salt",
          "type": "uint256"
        },
        {
          "internalType": "bytes",
          "name": "initData",
          "type": "bytes"
        }
      ],
      "name": "createAccount",
      "outputs": [
        {
          "internalType": "address",
          "name": "",
          "type": "address"
        }
      ],
      "stateMutability": "nonpayable",
      "type": "function"
    }
  ],
  "transactionHash": "0x97de2514480081306798a39bdb5a809d985347283d13aeb20dbe6ff00a6f2785",
  "args": [],
  "numDeployments": 1,
  "solcInputHash": "0a08bf786de08bbb4132c9da4cb834f6",
  "bytecode": "0x608060405260008055600280546001600160a01b0319167337f8bb1b8798cefabdb7f8bbde61a168705404d417905534801561003a57600080fd5b5061078e8061004a6000396000f3fe608060405234801561001057600080fd5b50600436106100575760003560e01c80631ad031561461005c5780635e5c06e21461008c5780635e9bc5361461011f578063a6e7997514610132578063da7323b314610149575b600080fd5b60025461006f906001600160a01b031681565b6040516001600160a01b0390911681526020015b60405180910390f35b6100df61009a366004610586565b60016020819052600091825260409091208054918101546002820154600383015460048401546005909401546001600160a01b03958616959394928416939192911686565b604080516001600160a01b0397881681526020810196909652938616938501939093526060840191909152608083015290911660a082015260c001610083565b61006f61012d3660046105a1565b61015c565b61013b60005481565b604051908152602001610083565b61006f6101573660046105ef565b61018b565b60008061016c87878787876103ba565b805160209091012090506101808382610423565b979650505050505050565b60008061019b89898989896103ba565b905060006101b38660001b8380519060200120610423565b90506001600160a01b0381163b156101ce5791506101809050565b6101da60008784610437565b90508315610264576000816001600160a01b031686866040516101fe9291906106a0565b6000604051808303816000865af19150503d806000811461023b576040519150601f19603f3d011682016040523d82523d6000602084013e610240565b606091505b505090508061026257604051630337323560e31b815260040160405180910390fd5b505b600080549080610273836106b0565b90915550506040805160c0810182526001600160a01b03808d16825260208083018d81528c8316848601908152606085018d8152608086018d815260028054871660a089019081528a881660009081526001978890528a9020985189549089166001600160a01b0319918216178a5595519689019690965592518784018054918816918616919091179055905160038701555160048601559151600590940180549484169490911693909317909255905491517f9127961586c085076a1d1ce4212848ba8c10ef08a1833f4275d48472ab58319f926103a59285928f928f928f928f928f92169042906001600160a01b039889168152968816602088015260408701959095529286166060860152608085019190915260a084015290921660c082015260e08101919091526101000190565b60405180910390a19998505050505050505050565b60408051602081018390529081018590526001600160a01b0384166060828101919091526080820184905290869060a00160408051601f198184030181529082905261040992916020016106d7565b604051602081830303815290604052905095945050505050565b6000610430838330610540565b9392505050565b60008347101561048e5760405162461bcd60e51b815260206004820152601d60248201527f437265617465323a20696e73756666696369656e742062616c616e636500000060448201526064015b60405180910390fd5b81516000036104df5760405162461bcd60e51b815260206004820181905260248201527f437265617465323a2062797465636f6465206c656e677468206973207a65726f6044820152606401610485565b8282516020840186f590506001600160a01b0381166104305760405162461bcd60e51b815260206004820152601960248201527f437265617465323a204661696c6564206f6e206465706c6f79000000000000006044820152606401610485565b6000604051836040820152846020820152828152600b8101905060ff815360559020949350505050565b80356001600160a01b038116811461058157600080fd5b919050565b60006020828403121561059857600080fd5b6104308261056a565b600080600080600060a086880312156105b957600080fd5b6105c28661056a565b9450602086013593506105d76040870161056a565b94979396509394606081013594506080013592915050565b600080600080600080600060c0888a03121561060a57600080fd5b6106138861056a565b9650602088013595506106286040890161056a565b9450606088013593506080880135925060a088013567ffffffffffffffff8082111561065357600080fd5b818a0191508a601f83011261066757600080fd5b81358181111561067657600080fd5b8b602082850101111561068857600080fd5b60208301945080935050505092959891949750929550565b8183823760009101908152919050565b6000600182016106d057634e487b7160e01b600052601160045260246000fd5b5060010190565b733d60ad80600a3d3981f3363d3d373d3d3d363d7360601b8152606083901b6bffffffffffffffffffffffff191660148201526e5af43d82803e903d91602b57fd5bf360881b60288201528151600090815b818110156107465760208186018101516037868401015201610729565b5060009201603701918252509291505056fea26469706673582212207e7a1529788d3e0d87777cbb3d8be03a72aa27f3bd21d967fcab079d29603d7a64736f6c63430008130033",
  "devdoc": {
    "kind": "dev",
    "methods": {},
    "version": 1
  },
  "userdoc": {
    "kind": "user",
    "methods": {},
    "version": 1
  },
  "storageLayout": {
    "storage": [
      {
        "astId": 6754,
        "contract": "contracts/BunyERC6551Registry.sol:BunyERC6551Registry",
        "label": "accountCounter",
        "offset": 0,
        "slot": "0",
        "type": "t_uint256"
      },
      {
        "astId": 6759,
        "contract": "contracts/BunyERC6551Registry.sol:BunyERC6551Registry",
        "label": "accounts",
        "offset": 0,
        "slot": "1",
        "type": "t_mapping(t_address,t_struct(IBunyAccount)6793_storage)"
      },
      {
        "astId": 6762,
        "contract": "contracts/BunyERC6551Registry.sol:BunyERC6551Registry",
        "label": "calendarAddress",
        "offset": 0,
        "slot": "2",
        "type": "t_address"
      }
    ],
    "types": {
      "t_address": {
        "encoding": "inplace",
        "label": "address",
        "numberOfBytes": "20"
      },
      "t_mapping(t_address,t_struct(IBunyAccount)6793_storage)": {
        "encoding": "mapping",
        "key": "t_address",
        "label": "mapping(address => struct BunyERC6551Registry.IBunyAccount)",
        "numberOfBytes": "32",
        "value": "t_struct(IBunyAccount)6793_storage"
      },
      "t_struct(IBunyAccount)6793_storage": {
        "encoding": "inplace",
        "label": "struct BunyERC6551Registry.IBunyAccount",
        "members": [
          {
            "astId": 6782,
            "contract": "contracts/BunyERC6551Registry.sol:BunyERC6551Registry",
            "label": "implementation",
            "offset": 0,
            "slot": "0",
            "type": "t_address"
          },
          {
            "astId": 6784,
            "contract": "contracts/BunyERC6551Registry.sol:BunyERC6551Registry",
            "label": "chainId",
            "offset": 0,
            "slot": "1",
            "type": "t_uint256"
          },
          {
            "astId": 6786,
            "contract": "contracts/BunyERC6551Registry.sol:BunyERC6551Registry",
            "label": "tokenContract",
            "offset": 0,
            "slot": "2",
            "type": "t_address"
          },
          {
            "astId": 6788,
            "contract": "contracts/BunyERC6551Registry.sol:BunyERC6551Registry",
            "label": "tokenId",
            "offset": 0,
            "slot": "3",
            "type": "t_uint256"
          },
          {
            "astId": 6790,
            "contract": "contracts/BunyERC6551Registry.sol:BunyERC6551Registry",
            "label": "salt",
            "offset": 0,
            "slot": "4",
            "type": "t_uint256"
          },
          {
            "astId": 6792,
            "contract": "contracts/BunyERC6551Registry.sol:BunyERC6551Registry",
            "label": "calendarAddress",
            "offset": 0,
            "slot": "5",
            "type": "t_address"
          }
        ],
        "numberOfBytes": "192"
      },
      "t_uint256": {
        "encoding": "inplace",
        "label": "uint256",
        "numberOfBytes": "32"
      }
    }
  }
}