{
  "address": "0x5C82289d69fd4c3a1a018844532d0977CBfA7ed2",
  "abi": [
    {
      "inputs": [
        {
          "internalType": "uint256",
          "name": "_size",
          "type": "uint256"
        },
        {
          "internalType": "uint256",
          "name": "_start",
          "type": "uint256"
        },
        {
          "internalType": "uint256",
          "name": "_end",
          "type": "uint256"
        }
      ],
      "name": "InvalidCodeAtRange",
      "type": "error"
    },
    {
      "anonymous": false,
      "inputs": [
        {
          "indexed": true,
          "internalType": "address",
          "name": "depositor",
          "type": "address"
        },
        {
          "indexed": false,
          "internalType": "uint256",
          "name": "amount",
          "type": "uint256"
        },
        {
          "indexed": false,
          "internalType": "uint256",
          "name": "timestamp",
          "type": "uint256"
        }
      ],
      "name": "NewDeposit",
      "type": "event"
    },
    {
      "anonymous": false,
      "inputs": [
        {
          "indexed": true,
          "internalType": "address",
          "name": "depositor",
          "type": "address"
        },
        {
          "indexed": true,
          "internalType": "address",
          "name": "tokenAddress",
          "type": "address"
        },
        {
          "indexed": false,
          "internalType": "uint256",
          "name": "amount",
          "type": "uint256"
        },
        {
          "indexed": false,
          "internalType": "uint256",
          "name": "timestamp",
          "type": "uint256"
        }
      ],
      "name": "NewERC20Deposit",
      "type": "event"
    },
    {
      "anonymous": false,
      "inputs": [
        {
          "indexed": false,
          "internalType": "string",
          "name": "title",
          "type": "string"
        },
        {
          "indexed": false,
          "internalType": "address",
          "name": "organizer",
          "type": "address"
        },
        {
          "indexed": false,
          "internalType": "uint256",
          "name": "startTime",
          "type": "uint256"
        },
        {
          "indexed": false,
          "internalType": "uint256",
          "name": "endTime",
          "type": "uint256"
        },
        {
          "indexed": false,
          "internalType": "string",
          "name": "metadataURI",
          "type": "string"
        },
        {
          "indexed": false,
          "internalType": "uint256",
          "name": "created",
          "type": "uint256"
        }
      ],
      "name": "NewEventCreated",
      "type": "event"
    },
    {
      "anonymous": false,
      "inputs": [
        {
          "indexed": true,
          "internalType": "address",
          "name": "depositor",
          "type": "address"
        },
        {
          "indexed": true,
          "internalType": "address",
          "name": "nftContractAddress",
          "type": "address"
        },
        {
          "indexed": false,
          "internalType": "uint256",
          "name": "tokenId",
          "type": "uint256"
        },
        {
          "indexed": false,
          "internalType": "uint256",
          "name": "timestamp",
          "type": "uint256"
        }
      ],
      "name": "NewNFTDeposit",
      "type": "event"
    },
    {
      "anonymous": false,
      "inputs": [
        {
          "indexed": false,
          "internalType": "string",
          "name": "title",
          "type": "string"
        },
        {
          "indexed": true,
          "internalType": "address",
          "name": "attendee",
          "type": "address"
        },
        {
          "indexed": false,
          "internalType": "uint256",
          "name": "startTime",
          "type": "uint256"
        },
        {
          "indexed": false,
          "internalType": "uint256",
          "name": "endTime",
          "type": "uint256"
        },
        {
          "indexed": false,
          "internalType": "uint256",
          "name": "timestamp",
          "type": "uint256"
        }
      ],
      "name": "NewPrivateEventCreated",
      "type": "event"
    },
    {
      "anonymous": false,
      "inputs": [
        {
          "indexed": false,
          "internalType": "uint256",
          "name": "eventID",
          "type": "uint256"
        },
        {
          "indexed": false,
          "internalType": "string",
          "name": "title",
          "type": "string"
        },
        {
          "indexed": false,
          "internalType": "address",
          "name": "invitee",
          "type": "address"
        }
      ],
      "name": "UserInvited",
      "type": "event"
    },
    {
      "anonymous": false,
      "inputs": [
        {
          "indexed": false,
          "internalType": "uint256",
          "name": "amount",
          "type": "uint256"
        },
        {
          "indexed": true,
          "internalType": "address",
          "name": "recipient",
          "type": "address"
        },
        {
          "indexed": false,
          "internalType": "uint256",
          "name": "timestamp",
          "type": "uint256"
        }
      ],
      "name": "WithdrawEvent",
      "type": "event"
    },
    {
      "inputs": [],
      "name": "accountName",
      "outputs": [
        {
          "internalType": "string",
          "name": "",
          "type": "string"
        }
      ],
      "stateMutability": "view",
      "type": "function"
    },
    {
      "inputs": [],
      "name": "calendarAddress",
      "outputs": [
        {
          "internalType": "address",
          "name": "",
          "type": "address"
        }
      ],
      "stateMutability": "view",
      "type": "function"
    },
    {
      "inputs": [
        {
          "internalType": "string",
          "name": "title",
          "type": "string"
        },
        {
          "internalType": "uint256",
          "name": "startTime",
          "type": "uint256"
        },
        {
          "internalType": "uint256",
          "name": "endTime",
          "type": "uint256"
        }
      ],
      "name": "createPrivateCalendarEvent",
      "outputs": [],
      "stateMutability": "nonpayable",
      "type": "function"
    },
    {
      "inputs": [
        {
          "internalType": "string",
          "name": "title",
          "type": "string"
        },
        {
          "internalType": "uint256",
          "name": "startTime",
          "type": "uint256"
        },
        {
          "internalType": "uint256",
          "name": "endTime",
          "type": "uint256"
        },
        {
          "internalType": "string",
          "name": "metadataURI",
          "type": "string"
        },
        {
          "internalType": "address[]",
          "name": "invitees",
          "type": "address[]"
        }
      ],
      "name": "createTelosCalendarEvent",
      "outputs": [],
      "stateMutability": "nonpayable",
      "type": "function"
    },
    {
      "inputs": [],
      "name": "deposit",
      "outputs": [],
      "stateMutability": "payable",
      "type": "function"
    },
    {
      "inputs": [],
      "name": "depositCount",
      "outputs": [
        {
          "internalType": "uint256",
          "name": "",
          "type": "uint256"
        }
      ],
      "stateMutability": "view",
      "type": "function"
    },
    {
      "inputs": [
        {
          "internalType": "uint256",
          "name": "",
          "type": "uint256"
        }
      ],
      "name": "deposits",
      "outputs": [
        {
          "internalType": "address",
          "name": "depositor",
          "type": "address"
        },
        {
          "internalType": "address",
          "name": "tokenAddress",
          "type": "address"
        },
        {
          "internalType": "uint256",
          "name": "amount",
          "type": "uint256"
        },
        {
          "internalType": "uint256",
          "name": "timestamp",
          "type": "uint256"
        }
      ],
      "stateMutability": "view",
      "type": "function"
    },
    {
      "inputs": [
        {
          "internalType": "address",
          "name": "",
          "type": "address"
        }
      ],
      "name": "eventCount",
      "outputs": [
        {
          "internalType": "uint256",
          "name": "",
          "type": "uint256"
        }
      ],
      "stateMutability": "view",
      "type": "function"
    },
    {
      "inputs": [
        {
          "internalType": "uint256",
          "name": "",
          "type": "uint256"
        }
      ],
      "name": "eventCreators",
      "outputs": [
        {
          "internalType": "address",
          "name": "",
          "type": "address"
        }
      ],
      "stateMutability": "view",
      "type": "function"
    },
    {
      "inputs": [
        {
          "internalType": "uint256",
          "name": "",
          "type": "uint256"
        },
        {
          "internalType": "uint256",
          "name": "",
          "type": "uint256"
        }
      ],
      "name": "eventInvitations",
      "outputs": [
        {
          "internalType": "address",
          "name": "",
          "type": "address"
        }
      ],
      "stateMutability": "view",
      "type": "function"
    },
    {
      "inputs": [
        {
          "internalType": "address",
          "name": "to",
          "type": "address"
        },
        {
          "internalType": "uint256",
          "name": "value",
          "type": "uint256"
        },
        {
          "internalType": "bytes",
          "name": "data",
          "type": "bytes"
        }
      ],
      "name": "executeCall",
      "outputs": [
        {
          "internalType": "bytes",
          "name": "result",
          "type": "bytes"
        }
      ],
      "stateMutability": "payable",
      "type": "function"
    },
    {
      "inputs": [],
      "name": "getBalance",
      "outputs": [
        {
          "internalType": "uint256",
          "name": "",
          "type": "uint256"
        }
      ],
      "stateMutability": "view",
      "type": "function"
    },
    {
      "inputs": [
        {
          "internalType": "address",
          "name": "_erc20Token",
          "type": "address"
        }
      ],
      "name": "getTokenBalance",
      "outputs": [
        {
          "internalType": "uint256",
          "name": "",
          "type": "uint256"
        }
      ],
      "stateMutability": "view",
      "type": "function"
    },
    {
      "inputs": [
        {
          "internalType": "address",
          "name": "user",
          "type": "address"
        }
      ],
      "name": "getUserPrivateEvents",
      "outputs": [
        {
          "components": [
            {
              "internalType": "string",
              "name": "title",
              "type": "string"
            },
            {
              "internalType": "address",
              "name": "attendee",
              "type": "address"
            },
            {
              "internalType": "uint256",
              "name": "startTime",
              "type": "uint256"
            },
            {
              "internalType": "uint256",
              "name": "endTime",
              "type": "uint256"
            }
          ],
          "internalType": "struct BunyERC6551Account.PrivateCalendarEvent[]",
          "name": "",
          "type": "tuple[]"
        }
      ],
      "stateMutability": "view",
      "type": "function"
    },
    {
      "inputs": [
        {
          "internalType": "address",
          "name": "user",
          "type": "address"
        }
      ],
      "name": "getUserPublicEvents",
      "outputs": [
        {
          "components": [
            {
              "internalType": "string",
              "name": "title",
              "type": "string"
            },
            {
              "internalType": "address",
              "name": "attendee",
              "type": "address"
            },
            {
              "internalType": "uint256",
              "name": "startTime",
              "type": "uint256"
            },
            {
              "internalType": "uint256",
              "name": "endTime",
              "type": "uint256"
            },
            {
              "internalType": "address",
              "name": "calendar",
              "type": "address"
            }
          ],
          "internalType": "struct BunyERC6551Account.CalendarEvent[]",
          "name": "",
          "type": "tuple[]"
        }
      ],
      "stateMutability": "view",
      "type": "function"
    },
    {
      "inputs": [
        {
          "internalType": "bytes32",
          "name": "hash",
          "type": "bytes32"
        },
        {
          "internalType": "bytes",
          "name": "signature",
          "type": "bytes"
        }
      ],
      "name": "isValidSignature",
      "outputs": [
        {
          "internalType": "bytes4",
          "name": "magicValue",
          "type": "bytes4"
        }
      ],
      "stateMutability": "view",
      "type": "function"
    },
    {
      "inputs": [],
      "name": "nftDepositCount",
      "outputs": [
        {
          "internalType": "uint256",
          "name": "",
          "type": "uint256"
        }
      ],
      "stateMutability": "view",
      "type": "function"
    },
    {
      "inputs": [
        {
          "internalType": "uint256",
          "name": "",
          "type": "uint256"
        }
      ],
      "name": "nftDeposits",
      "outputs": [
        {
          "internalType": "address",
          "name": "depositor",
          "type": "address"
        },
        {
          "internalType": "address",
          "name": "nftContractAddress",
          "type": "address"
        },
        {
          "internalType": "uint256",
          "name": "tokenId",
          "type": "uint256"
        },
        {
          "internalType": "uint256",
          "name": "timestamp",
          "type": "uint256"
        }
      ],
      "stateMutability": "view",
      "type": "function"
    },
    {
      "inputs": [],
      "name": "nonce",
      "outputs": [
        {
          "internalType": "uint256",
          "name": "",
          "type": "uint256"
        }
      ],
      "stateMutability": "view",
      "type": "function"
    },
    {
      "inputs": [],
      "name": "owner",
      "outputs": [
        {
          "internalType": "address",
          "name": "",
          "type": "address"
        }
      ],
      "stateMutability": "view",
      "type": "function"
    },
    {
      "inputs": [
        {
          "internalType": "address",
          "name": "_erc20Token",
          "type": "address"
        },
        {
          "internalType": "uint256",
          "name": "amount",
          "type": "uint256"
        }
      ],
      "name": "receiveERC20",
      "outputs": [],
      "stateMutability": "payable",
      "type": "function"
    },
    {
      "inputs": [
        {
          "internalType": "address",
          "name": "_nftContract",
          "type": "address"
        },
        {
          "internalType": "uint256",
          "name": "_tokenId",
          "type": "uint256"
        }
      ],
      "name": "receiveNFT",
      "outputs": [],
      "stateMutability": "nonpayable",
      "type": "function"
    },
    {
      "inputs": [
        {
          "internalType": "string",
          "name": "newName",
          "type": "string"
        }
      ],
      "name": "setAccountName",
      "outputs": [],
      "stateMutability": "nonpayable",
      "type": "function"
    },
    {
      "inputs": [
        {
          "internalType": "address",
          "name": "_contractAddress",
          "type": "address"
        }
      ],
      "name": "setCalendarAddress",
      "outputs": [],
      "stateMutability": "nonpayable",
      "type": "function"
    },
    {
      "inputs": [
        {
          "internalType": "bytes4",
          "name": "interfaceId",
          "type": "bytes4"
        }
      ],
      "name": "supportsInterface",
      "outputs": [
        {
          "internalType": "bool",
          "name": "",
          "type": "bool"
        }
      ],
      "stateMutability": "pure",
      "type": "function"
    },
    {
      "inputs": [],
      "name": "token",
      "outputs": [
        {
          "internalType": "uint256",
          "name": "chainId",
          "type": "uint256"
        },
        {
          "internalType": "address",
          "name": "tokenContract",
          "type": "address"
        },
        {
          "internalType": "uint256",
          "name": "tokenId",
          "type": "uint256"
        }
      ],
      "stateMutability": "view",
      "type": "function"
    },
    {
      "inputs": [],
      "name": "totalEvents",
      "outputs": [
        {
          "internalType": "uint256",
          "name": "",
          "type": "uint256"
        }
      ],
      "stateMutability": "view",
      "type": "function"
    },
    {
      "inputs": [
        {
          "internalType": "address",
          "name": "",
          "type": "address"
        },
        {
          "internalType": "uint256",
          "name": "",
          "type": "uint256"
        }
      ],
      "name": "userEvents",
      "outputs": [
        {
          "internalType": "string",
          "name": "title",
          "type": "string"
        },
        {
          "internalType": "address",
          "name": "attendee",
          "type": "address"
        },
        {
          "internalType": "uint256",
          "name": "startTime",
          "type": "uint256"
        },
        {
          "internalType": "uint256",
          "name": "endTime",
          "type": "uint256"
        },
        {
          "internalType": "address",
          "name": "calendar",
          "type": "address"
        }
      ],
      "stateMutability": "view",
      "type": "function"
    },
    {
      "inputs": [
        {
          "internalType": "address",
          "name": "",
          "type": "address"
        },
        {
          "internalType": "uint256",
          "name": "",
          "type": "uint256"
        }
      ],
      "name": "userPrivateEvents",
      "outputs": [
        {
          "internalType": "string",
          "name": "title",
          "type": "string"
        },
        {
          "internalType": "address",
          "name": "attendee",
          "type": "address"
        },
        {
          "internalType": "uint256",
          "name": "startTime",
          "type": "uint256"
        },
        {
          "internalType": "uint256",
          "name": "endTime",
          "type": "uint256"
        }
      ],
      "stateMutability": "view",
      "type": "function"
    },
    {
      "inputs": [
        {
          "internalType": "uint256",
          "name": "",
          "type": "uint256"
        }
      ],
      "name": "users",
      "outputs": [
        {
          "internalType": "address",
          "name": "",
          "type": "address"
        }
      ],
      "stateMutability": "view",
      "type": "function"
    },
    {
      "inputs": [
        {
          "internalType": "uint256",
          "name": "amount",
          "type": "uint256"
        }
      ],
      "name": "withdraw",
      "outputs": [],
      "stateMutability": "nonpayable",
      "type": "function"
    },
    {
      "inputs": [
        {
          "internalType": "address payable",
          "name": "recipient",
          "type": "address"
        },
        {
          "internalType": "uint256",
          "name": "amount",
          "type": "uint256"
        }
      ],
      "name": "withdrawTo",
      "outputs": [],
      "stateMutability": "nonpayable",
      "type": "function"
    },
    {
      "stateMutability": "payable",
      "type": "receive"
    }
  ],
  "transactionHash": "0x35700974df32d2d1b16ce8b5508b345a307fbdb6f0f033c6e572f6def63b3fe3",
  "args": [],
  "numDeployments": 1,
  "solcInputHash": "0a08bf786de08bbb4132c9da4cb834f6",
  "bytecode": "0x60e0604052602160808181529062002ac360a0396001906200002290826200010c565b5060006002819055600780546001600160a01b0319167337f8bb1b8798cefabdb7f8bbde61a168705404d4179055600e553480156200006057600080fd5b50620001d8565b634e487b7160e01b600052604160045260246000fd5b600181811c908216806200009257607f821691505b602082108103620000b357634e487b7160e01b600052602260045260246000fd5b50919050565b601f8211156200010757600081815260208120601f850160051c81016020861015620000e25750805b601f850160051c820191505b818110156200010357828155600101620000ee565b5050505b505050565b81516001600160401b0381111562000128576200012862000067565b62000140816200013984546200007d565b84620000b9565b602080601f8311600181146200017857600084156200015f5750858301515b600019600386901b1c1916600185901b17855562000103565b600085815260208120601f198616915b82811015620001a95788860151825594840194600190910190840162000188565b5085821015620001c85787850151600019600388901b60f8161c191681555b5050505050600190811b01905550565b6128db80620001e86000396000f3fe6080604052600436106101e75760003560e01c80638da5cb5b11610102578063bdfc989311610095578063ef7e1f6811610064578063ef7e1f6814610624578063f22c1fcb14610644578063f4a693f014610671578063fc0c546a1461068757600080fd5b8063bdfc9893146105b6578063c5e57985146105e7578063d0e30db0146105fc578063dd224ab11461060457600080fd5b8063affed0e0116100d1578063affed0e01461050a578063b02c43d01461051f578063b4a8121d14610570578063ba870686146105a057600080fd5b80638da5cb5b146104a257806395fa6c50146104b75780639e5d4c49146104d7578063aed4aab6146104f757600080fd5b80632e1a7d4d1161017a5780633aecd0e3116101495780633aecd0e314610408578063455f20dc14610428578063783a697914610455578063824ed4351461047557600080fd5b80632e1a7d4d146103885780632e95adad146103a8578063319d63e5146103c8578063365b98b2146103e857600080fd5b80631ad03156116101b65780631ad03156146102a05780631bc5fc96146102d8578063205c2878146103525780632dfdf0b51461037257600080fd5b806301ffc9a7146101f357806306a719d21461022857806312065fe01461024a5780631626ba7e1461026757600080fd5b366101ee57005b600080fd5b3480156101ff57600080fd5b5061021361020e366004611e62565b6106bf565b60405190151581526020015b60405180910390f35b34801561023457600080fd5b50610248610243366004611f4b565b610711565b005b34801561025657600080fd5b50475b60405190815260200161021f565b34801561027357600080fd5b50610287610282366004611f99565b610854565b6040516001600160e01b0319909116815260200161021f565b3480156102ac57600080fd5b506007546102c0906001600160a01b031681565b6040516001600160a01b03909116815260200161021f565b3480156102e457600080fd5b506103276102f3366004611ff4565b600d6020526000908152604090208054600182015460028301546003909301546001600160a01b0392831693919092169184565b604080516001600160a01b03958616815294909316602085015291830152606082015260800161021f565b34801561035e57600080fd5b5061024861036d366004612025565b610892565b34801561037e57600080fd5b5061025960025481565b34801561039457600080fd5b506102486103a3366004611ff4565b61094d565b3480156103b457600080fd5b506102486103c3366004612051565b610a38565b3480156103d457600080fd5b506102486103e3366004612025565b610aca565b3480156103f457600080fd5b506102c0610403366004611ff4565b610cd5565b34801561041457600080fd5b5061025961042336600461208e565b610cff565b34801561043457600080fd5b5061025961044336600461208e565b600c6020526000908152604090205481565b34801561046157600080fd5b506102486104703660046120ab565b610d6a565b34801561048157600080fd5b5061049561049036600461208e565b61114b565b60405161021f9190612208565b3480156104ae57600080fd5b506102c06112fd565b3480156104c357600080fd5b506102c06104d2366004611ff4565b6113ed565b6104ea6104e536600461229c565b6113fd565b60405161021f9190612325565b610248610505366004612025565b6114eb565b34801561051657600080fd5b50600054610259565b34801561052b57600080fd5b5061032761053a366004611ff4565b600360208190526000918252604090912080546001820154600283015492909301546001600160a01b0391821693909116919084565b34801561057c57600080fd5b5061059061058b366004612025565b6115e7565b60405161021f9493929190612338565b3480156105ac57600080fd5b50610259600b5481565b3480156105c257600080fd5b506105d66105d1366004612025565b6116c8565b60405161021f959493929190612370565b3480156105f357600080fd5b506104ea6117b0565b61024861183e565b34801561061057600080fd5b5061024861061f36600461208e565b611962565b34801561063057600080fd5b506102c061063f3660046123b5565b6119bc565b34801561065057600080fd5b5061066461065f36600461208e565b6119f4565b60405161021f91906123d7565b34801561067d57600080fd5b50610259600e5481565b34801561069357600080fd5b5061069c611b2a565b604080519384526001600160a01b0390921660208401529082015260600161021f565b60006001600160e01b031982166301ffc9a760e01b14806106f057506001600160e01b03198216630801407360e31b145b8061070b57506001600160e01b03198216630b135d3f60e11b145b92915050565b6107196112fd565b6001600160a01b0316336001600160a01b0316146107525760405162461bcd60e51b81526004016107499061246a565b60405180910390fd5b61078660405180608001604052806060815260200160006001600160a01b0316815260200160008152602001600081525090565b8381526040808201849052606082018390523060208084018290526000918252600581529181208054600181018255908252919020825183926004029091019081906107d29082612538565b5060208201516001820180546001600160a01b0319166001600160a01b0390921691909117905560408083015160028301556060909201516003909101555130907fd740b5151f420f46926378a85e7f75b400f438314636e3e3e7ea46d4a395d761906108469087908790879042906125f8565b60405180910390a250505050565b6000806108696108626112fd565b8585611b66565b905080156108815750630b135d3f60e11b905061070b565b506001600160e01b03199392505050565b61089a6112fd565b6001600160a01b0316336001600160a01b0316146108ca5760405162461bcd60e51b815260040161074990612627565b478111156109125760405162461bcd60e51b815260206004820152601560248201527424b739bab33334b1b4b2b73a103130b630b731b29760591b6044820152606401610749565b6040516001600160a01b0383169082156108fc029083906000818181858888f19350505050158015610948573d6000803e3d6000fd5b505050565b6109556112fd565b6001600160a01b0316336001600160a01b0316146109855760405162461bcd60e51b815260040161074990612627565b478111156109cd5760405162461bcd60e51b815260206004820152601560248201527424b739bab33334b1b4b2b73a103130b630b731b29760591b6044820152606401610749565b604051339082156108fc029083906000818181858888f193505050501580156109fa573d6000803e3d6000fd5b506040805182815242602082015233917f8cf1dfe3b4685982358f16fbcb1d9192f7945d25d503b15a39bd2bf5dfc6bf7a910160405180910390a250565b610a406112fd565b6001600160a01b0316336001600160a01b031614610aba5760405162461bcd60e51b815260206004820152603160248201527f4f6e6c792074686520636f6e7472616374206f776e65722063616e207365742060448201527074686520636f6e7472616374206e616d6560781b6064820152608401610749565b6001610ac68282612538565b5050565b6040516331a9108f60e11b81526004810182905282906001600160a01b03821690636352211e90602401602060405180830381865afa158015610b11573d6000803e3d6000fd5b505050506040513d601f19601f82011682018060405250810190610b359190612669565b6001600160a01b0316336001600160a01b031614610ba15760405162461bcd60e51b815260206004820152602360248201527f43616c6c6572206973206e6f7420746865206f776e6572206f6620746869732060448201526213919560ea1b6064820152608401610749565b6040516323b872dd60e01b8152336004820152306024820152604481018390526001600160a01b038216906323b872dd90606401600060405180830381600087803b158015610bef57600080fd5b505af1158015610c03573d6000803e3d6000fd5b5050600e8054925090506000610c188361269c565b909155505060408051608081018252338082526001600160a01b0386811660208085018281528587018981524260608801818152600e546000908152600d86528a9020985189549088166001600160a01b0319918216178a55935160018a01805491909816941693909317909555516002870155516003909501949094558451878152938401919091529290917f60a31190882340f80c8c258e4b073d3a4ee6fbef12f5e12063dc7be0ef1ed4eb910160405180910390a3505050565b60098181548110610ce557600080fd5b6000918252602090912001546001600160a01b0316905081565b6040516370a0823160e01b81523060048201526000906001600160a01b038316906370a0823190602401602060405180830381865afa158015610d46573d6000803e3d6000fd5b505050506040513d601f19601f8201168201806040525081019061070b91906126b5565b610d726112fd565b6001600160a01b0316336001600160a01b031614610de45760405162461bcd60e51b815260206004820152602960248201527f4f6e6c79204e4654206f776e65722063616e206372656174652063616c656e646044820152686172206576656e747360b81b6064820152608401610749565b60075460405163783a697960e01b81526001600160a01b0390911690819063783a697990610e1e90899089908990899089906004016126ce565b600060405180830381600087803b158015610e3857600080fd5b505af1158015610e4c573d6000803e3d6000fd5b50505050610e946040518060a001604052806060815260200160006001600160a01b03168152602001600081526020016000815260200160006001600160a01b031681525090565b868152604080820187905260608201869052306020808401919091526007546001600160a01b03166080840152336000908152600682529182208054600181018255908352912082518392600502909101908190610ef29082612538565b50602082810151600180840180546001600160a01b039384166001600160a01b03199182161790915560408087015160028701556060870151600387015560809096015160049095018054959093169416939093179055336000908152600690915291822054610f62919061274e565b600b80549192506000610f748361269c565b90915550503360009081526006602052604090205460010361100b576009805460018082019092557f6e1540171b6c0c960b71a7020d9f60077f6af931a8bbf590da0223dacf75c7af018054336001600160a01b03199182168117909255600a805493840181556000527fc65a7bb8d6351c1cf70c95a316cc6a92839c986682d98bc35f958f4883f9d2a890920180549092161790555b336000908152600c602052604081208054916110268361269c565b919050555060005b84518110156110ff576000828152600860205260409020855186908390811061105957611059612761565b60209081029190910181015182546001810184556000938452919092200180546001600160a01b0319166001600160a01b0390921691909117905584517fd48873c66feece7bbf3cbcd8d14102600b7da47eac54823e0441effd7da44c5e9083908b908890859081106110ce576110ce612761565b60200260200101516040516110e593929190612777565b60405180910390a1806110f78161269c565b91505061102e565b507f5de78a9ae4c001e59c842d545242d8a786775b83ea20661569877156e6ec641d883389898942604051611139969594939291906127a8565b60405180910390a15050505050505050565b60606111556112fd565b6001600160a01b0316336001600160a01b0316146111ce5760405162461bcd60e51b815260206004820152603060248201527f4f6e6c792074686520636f6e7472616374206f776e65722063616e206665746360448201526f682070726976617465206576656e747360801b6064820152608401610749565b6001600160a01b038216600090815260056020908152604080832080548251818502810185019093528083529193909284015b828210156112f25783829060005260206000209060040201604051806080016040529081600082018054611234906124b0565b80601f0160208091040260200160405190810160405280929190818152602001828054611260906124b0565b80156112ad5780601f10611282576101008083540402835291602001916112ad565b820191906000526020600020905b81548152906001019060200180831161129057829003601f168201915b50505091835250506001828101546001600160a01b03166020808401919091526002840154604084015260039093015460609092019190915291835292019101611201565b505050509050919050565b600080600080306001600160a01b031663fc0c546a6040518163ffffffff1660e01b8152600401606060405180830381865afa158015611341573d6000803e3d6000fd5b505050506040513d601f19601f8201168201806040525081019061136591906127fe565b92509250925046831461137c576000935050505090565b6040516331a9108f60e11b8152600481018290526001600160a01b03831690636352211e90602401602060405180830381865afa1580156113c1573d6000803e3d6000fd5b505050506040513d601f19601f820116820180604052508101906113e59190612669565b935050505090565b600a8181548110610ce557600080fd5b60606114076112fd565b6001600160a01b0316336001600160a01b0316146114595760405162461bcd60e51b815260206004820152600f60248201526e2737ba103a37b5b2b71037bbb732b960891b6044820152606401610749565b6000856001600160a01b0316858585604051611476929190612837565b60006040518083038185875af1925050503d80600081146114b3576040519150601f19603f3d011682016040523d82523d6000602084013e6114b8565b606091505b5092509050806114ca57815160208301fd5b60016000808282546114dc9190612847565b90915550919695505050505050565b6001600160a01b03821660009081526004602052604081208054839290611513908490612847565b9091555050600280549060006115288361269c565b909155505060408051608081018252338082526001600160a01b03858116602080850182815285870188815242606088018181526002805460009081526003808852908c90209a518b54908a166001600160a01b0319918216178c55955160018c01805491909a16961695909517909755915195880195909555519501949094558451348152938401919091529290917f15813e9564c507bcbca7412d2ad13afab5e7278037d8d5e34f8bb00baea2140a910160405180910390a35050565b6005602052816000526040600020818154811061160357600080fd5b906000526020600020906004020160009150915050806000018054611627906124b0565b80601f0160208091040260200160405190810160405280929190818152602001828054611653906124b0565b80156116a05780601f10611675576101008083540402835291602001916116a0565b820191906000526020600020905b81548152906001019060200180831161168357829003601f168201915b505050506001830154600284015460039094015492936001600160a01b039091169290915084565b600660205281600052604060002081815481106116e457600080fd5b906000526020600020906005020160009150915050806000018054611708906124b0565b80601f0160208091040260200160405190810160405280929190818152602001828054611734906124b0565b80156117815780601f1061175657610100808354040283529160200191611781565b820191906000526020600020905b81548152906001019060200180831161176457829003601f168201915b50505060018401546002850154600386015460049096015494956001600160a01b039283169591945092501685565b600180546117bd906124b0565b80601f01602080910402602001604051908101604052809291908181526020018280546117e9906124b0565b80156118365780601f1061180b57610100808354040283529160200191611836565b820191906000526020600020905b81548152906001019060200180831161181957829003601f168201915b505050505081565b6000341161189d5760405162461bcd60e51b815260206004820152602660248201527f4465706f73697420616d6f756e74206d757374206265206772656174657220746044820152653430b710181760d11b6064820152608401610749565b600280549060006118ad8361269c565b90915550506040805160808101825233808252600060208084018281523485870181815242606088018181526002805488526003808852978b902099518a546001600160a01b03199081166001600160a01b03928316178c55965160018c0180549098169116179095559151938801939093555195909301949094558451918252810192909252917fa91e0c3165215fe453f5bf3de083d5fd6c4e62c491849155a042a647588c53a0910160405180910390a2565b61196a6112fd565b6001600160a01b0316336001600160a01b03161461199a5760405162461bcd60e51b81526004016107499061246a565b600780546001600160a01b0319166001600160a01b0392909216919091179055565b600860205281600052604060002081815481106119d857600080fd5b6000918252602090912001546001600160a01b03169150829050565b6001600160a01b0381166000908152600660209081526040808320805482518185028101850190935280835260609492939192909184015b828210156112f257838290600052602060002090600502016040518060a0016040529081600082018054611a5f906124b0565b80601f0160208091040260200160405190810160405280929190818152602001828054611a8b906124b0565b8015611ad85780601f10611aad57610100808354040283529160200191611ad8565b820191906000526020600020905b815481529060010190602001808311611abb57829003601f168201915b50505091835250506001828101546001600160a01b0390811660208085019190915260028501546040850152600385015460608501526004909401541660809092019190915291835292019101611a2c565b6000808030803b90611b4790611b4160608461274e565b83611bc9565b806020019051810190611b5a91906127fe565b93509350935050909192565b6000806000611b758585611c7e565b90925090506000816003811115611b8e57611b8e61285a565b148015611bac5750856001600160a01b0316826001600160a01b0316145b80611bbd5750611bbd868686611cc3565b925050505b9392505050565b6060833b6000819003611bec575050604080516020810190915260008152611bc2565b80841115611c0a575050604080516020810190915260008152611bc2565b83831015611c3c5760405163162544fd60e11b8152600481018290526024810185905260448101849052606401610749565b8383038482036000828210611c515782611c53565b815b60408051603f8301601f19168101909152818152955090508087602087018a3c505050509392505050565b6000808251604103611cb45760208301516040840151606085015160001a611ca887828585611d9e565b94509450505050611cbc565b506000905060025b9250929050565b6000806000856001600160a01b03168585604051602401611ce5929190612870565b60408051601f198184030181529181526020820180516001600160e01b0316630b135d3f60e11b17905251611d1a9190612889565b600060405180830381855afa9150503d8060008114611d55576040519150601f19603f3d011682016040523d82523d6000602084013e611d5a565b606091505b5091509150818015611d6e57506020815110155b8015611bbd57508051630b135d3f60e11b90611d9390830160209081019084016126b5565b149695505050505050565b6000807f7fffffffffffffffffffffffffffffff5d576e7357a4501ddfe92f46681b20a0831115611dd55750600090506003611e59565b6040805160008082526020820180845289905260ff881692820192909252606081018690526080810185905260019060a0016020604051602081039080840390855afa158015611e29573d6000803e3d6000fd5b5050604051601f1901519150506001600160a01b038116611e5257600060019250925050611e59565b9150600090505b94509492505050565b600060208284031215611e7457600080fd5b81356001600160e01b031981168114611bc257600080fd5b634e487b7160e01b600052604160045260246000fd5b604051601f8201601f1916810167ffffffffffffffff81118282101715611ecb57611ecb611e8c565b604052919050565b600067ffffffffffffffff831115611eed57611eed611e8c565b611f00601f8401601f1916602001611ea2565b9050828152838383011115611f1457600080fd5b828260208301376000602084830101529392505050565b600082601f830112611f3c57600080fd5b611bc283833560208501611ed3565b600080600060608486031215611f6057600080fd5b833567ffffffffffffffff811115611f7757600080fd5b611f8386828701611f2b565b9660208601359650604090950135949350505050565b60008060408385031215611fac57600080fd5b82359150602083013567ffffffffffffffff811115611fca57600080fd5b8301601f81018513611fdb57600080fd5b611fea85823560208401611ed3565b9150509250929050565b60006020828403121561200657600080fd5b5035919050565b6001600160a01b038116811461202257600080fd5b50565b6000806040838503121561203857600080fd5b82356120438161200d565b946020939093013593505050565b60006020828403121561206357600080fd5b813567ffffffffffffffff81111561207a57600080fd5b61208684828501611f2b565b949350505050565b6000602082840312156120a057600080fd5b8135611bc28161200d565b600080600080600060a086880312156120c357600080fd5b853567ffffffffffffffff808211156120db57600080fd5b6120e789838a01611f2b565b9650602091508188013595506040880135945060608801358181111561210c57600080fd5b6121188a828b01611f2b565b94505060808801358181111561212d57600080fd5b8801601f81018a1361213e57600080fd5b80358281111561215057612150611e8c565b8060051b9250612161848401611ea2565b818152928201840192848101908c85111561217b57600080fd5b928501925b848410156121a557833592506121958361200d565b8282529285019290850190612180565b8096505050505050509295509295909350565b60005b838110156121d35781810151838201526020016121bb565b50506000910152565b600081518084526121f48160208601602086016121b8565b601f01601f19169290920160200192915050565b60006020808301818452808551808352604092508286019150828160051b87010184880160005b8381101561228e57603f19898403018552815160808151818652612255828701826121dc565b838b01516001600160a01b0316878c0152898401518a88015260609384015193909601929092525050938601939086019060010161222f565b509098975050505050505050565b600080600080606085870312156122b257600080fd5b84356122bd8161200d565b935060208501359250604085013567ffffffffffffffff808211156122e157600080fd5b818701915087601f8301126122f557600080fd5b81358181111561230457600080fd5b88602082850101111561231657600080fd5b95989497505060200194505050565b602081526000611bc260208301846121dc565b60808152600061234b60808301876121dc565b6001600160a01b03959095166020830152506040810192909252606090910152919050565b60a08152600061238360a08301886121dc565b6001600160a01b0396871660208401526040830195909552506060810192909252909216608090920191909152919050565b600080604083850312156123c857600080fd5b50508035926020909101359150565b60006020808301818452808551808352604092508286019150828160051b87010184880160005b8381101561228e57603f19898403018552815160a08151818652612424828701826121dc565b838b01516001600160a01b03908116888d01528a8501518b89015260608086015190890152608094850151169390960192909252505093860193908601906001016123fe565b60208082526026908201527f4f6e6c79206f776e65722063616e206372656174652063616c656e646172206560408201526503b32b73a39960d51b606082015260800190565b600181811c908216806124c457607f821691505b6020821081036124e457634e487b7160e01b600052602260045260246000fd5b50919050565b601f82111561094857600081815260208120601f850160051c810160208610156125115750805b601f850160051c820191505b818110156125305782815560010161251d565b505050505050565b815167ffffffffffffffff81111561255257612552611e8c565b6125668161256084546124b0565b846124ea565b602080601f83116001811461259b57600084156125835750858301515b600019600386901b1c1916600185901b178555612530565b600085815260208120601f198616915b828110156125ca578886015182559484019460019091019084016125ab565b50858210156125e85787850151600019600388901b60f8161c191681555b5050505050600190811b01905550565b60808152600061260b60808301876121dc565b6020830195909552506040810192909252606090910152919050565b60208082526022908201527f4f6e6c7920746865206f776e65722063616e2077697468647261772066756e64604082015261399760f11b606082015260800190565b60006020828403121561267b57600080fd5b8151611bc28161200d565b634e487b7160e01b600052601160045260246000fd5b6000600182016126ae576126ae612686565b5060010190565b6000602082840312156126c757600080fd5b5051919050565b60a0815260006126e160a08301886121dc565b60208781850152866040850152838203606085015261270082876121dc565b8481036080860152855180825282870193509082019060005b8181101561273e5784516001600160a01b031683529383019391830191600101612719565b50909a9950505050505050505050565b8181038181111561070b5761070b612686565b634e487b7160e01b600052603260045260246000fd5b83815260606020820152600061279060608301856121dc565b905060018060a01b0383166040830152949350505050565b60c0815260006127bb60c08301896121dc565b6001600160a01b0388166020840152604083018790526060830186905282810360808401526127ea81866121dc565b9150508260a0830152979650505050505050565b60008060006060848603121561281357600080fd5b8351925060208401516128258161200d565b80925050604084015190509250925092565b8183823760009101908152919050565b8082018082111561070b5761070b612686565b634e487b7160e01b600052602160045260246000fd5b82815260406020820152600061208660408301846121dc565b6000825161289b8184602087016121b8565b919091019291505056fea264697066735822122092384faaea4c7f47817dc4e33f8a7c4e07a07d0df7bd22822eda8caa6dde330d64736f6c634300081300334942554e59204552433635353120546f6b656e204f776e6564204163636f756e74",
  "devdoc": {
    "kind": "dev",
    "methods": {
      "isValidSignature(bytes32,bytes)": {
        "details": "Should return whether the signature provided is valid for the provided data",
        "params": {
          "hash": "Hash of the data to be signed",
          "signature": "Signature byte array associated with _data"
        }
      },
      "supportsInterface(bytes4)": {
        "details": "Returns true if this contract implements the interface defined by `interfaceId`. See the corresponding https://eips.ethereum.org/EIPS/eip-165#how-interfaces-are-identified[EIP section] to learn more about how these ids are created. This function call must use less than 30 000 gas."
      }
    },
    "version": 1
  },
  "userdoc": {
    "kind": "user",
    "methods": {},
    "version": 1
  },
  "storageLayout": {
    "storage": [
      {
        "astId": 5712,
        "contract": "contracts/BunyERC6551Account.sol:BunyERC6551Account",
        "label": "_nonce",
        "offset": 0,
        "slot": "0",
        "type": "t_uint256"
      },
      {
        "astId": 5715,
        "contract": "contracts/BunyERC6551Account.sol:BunyERC6551Account",
        "label": "accountName",
        "offset": 0,
        "slot": "1",
        "type": "t_string_storage"
      },
      {
        "astId": 5718,
        "contract": "contracts/BunyERC6551Account.sol:BunyERC6551Account",
        "label": "depositCount",
        "offset": 0,
        "slot": "2",
        "type": "t_uint256"
      },
      {
        "astId": 5723,
        "contract": "contracts/BunyERC6551Account.sol:BunyERC6551Account",
        "label": "deposits",
        "offset": 0,
        "slot": "3",
        "type": "t_mapping(t_uint256,t_struct(Deposit)5875_storage)"
      },
      {
        "astId": 5727,
        "contract": "contracts/BunyERC6551Account.sol:BunyERC6551Account",
        "label": "tokenBalances",
        "offset": 0,
        "slot": "4",
        "type": "t_mapping(t_address,t_uint256)"
      },
      {
        "astId": 5733,
        "contract": "contracts/BunyERC6551Account.sol:BunyERC6551Account",
        "label": "userPrivateEvents",
        "offset": 0,
        "slot": "5",
        "type": "t_mapping(t_address,t_array(t_struct(PrivateCalendarEvent)5846_storage)dyn_storage)"
      },
      {
        "astId": 5739,
        "contract": "contracts/BunyERC6551Account.sol:BunyERC6551Account",
        "label": "userEvents",
        "offset": 0,
        "slot": "6",
        "type": "t_mapping(t_address,t_array(t_struct(CalendarEvent)5866_storage)dyn_storage)"
      },
      {
        "astId": 5742,
        "contract": "contracts/BunyERC6551Account.sol:BunyERC6551Account",
        "label": "calendarAddress",
        "offset": 0,
        "slot": "7",
        "type": "t_address"
      },
      {
        "astId": 5747,
        "contract": "contracts/BunyERC6551Account.sol:BunyERC6551Account",
        "label": "eventInvitations",
        "offset": 0,
        "slot": "8",
        "type": "t_mapping(t_uint256,t_array(t_address)dyn_storage)"
      },
      {
        "astId": 5750,
        "contract": "contracts/BunyERC6551Account.sol:BunyERC6551Account",
        "label": "users",
        "offset": 0,
        "slot": "9",
        "type": "t_array(t_address)dyn_storage"
      },
      {
        "astId": 5753,
        "contract": "contracts/BunyERC6551Account.sol:BunyERC6551Account",
        "label": "eventCreators",
        "offset": 0,
        "slot": "10",
        "type": "t_array(t_address)dyn_storage"
      },
      {
        "astId": 5755,
        "contract": "contracts/BunyERC6551Account.sol:BunyERC6551Account",
        "label": "totalEvents",
        "offset": 0,
        "slot": "11",
        "type": "t_uint256"
      },
      {
        "astId": 5759,
        "contract": "contracts/BunyERC6551Account.sol:BunyERC6551Account",
        "label": "eventCount",
        "offset": 0,
        "slot": "12",
        "type": "t_mapping(t_address,t_uint256)"
      },
      {
        "astId": 5764,
        "contract": "contracts/BunyERC6551Account.sol:BunyERC6551Account",
        "label": "nftDeposits",
        "offset": 0,
        "slot": "13",
        "type": "t_mapping(t_uint256,t_struct(NFTDeposit)5855_storage)"
      },
      {
        "astId": 5767,
        "contract": "contracts/BunyERC6551Account.sol:BunyERC6551Account",
        "label": "nftDepositCount",
        "offset": 0,
        "slot": "14",
        "type": "t_uint256"
      }
    ],
    "types": {
      "t_address": {
        "encoding": "inplace",
        "label": "address",
        "numberOfBytes": "20"
      },
      "t_array(t_address)dyn_storage": {
        "base": "t_address",
        "encoding": "dynamic_array",
        "label": "address[]",
        "numberOfBytes": "32"
      },
      "t_array(t_struct(CalendarEvent)5866_storage)dyn_storage": {
        "base": "t_struct(CalendarEvent)5866_storage",
        "encoding": "dynamic_array",
        "label": "struct BunyERC6551Account.CalendarEvent[]",
        "numberOfBytes": "32"
      },
      "t_array(t_struct(PrivateCalendarEvent)5846_storage)dyn_storage": {
        "base": "t_struct(PrivateCalendarEvent)5846_storage",
        "encoding": "dynamic_array",
        "label": "struct BunyERC6551Account.PrivateCalendarEvent[]",
        "numberOfBytes": "32"
      },
      "t_mapping(t_address,t_array(t_struct(CalendarEvent)5866_storage)dyn_storage)": {
        "encoding": "mapping",
        "key": "t_address",
        "label": "mapping(address => struct BunyERC6551Account.CalendarEvent[])",
        "numberOfBytes": "32",
        "value": "t_array(t_struct(CalendarEvent)5866_storage)dyn_storage"
      },
      "t_mapping(t_address,t_array(t_struct(PrivateCalendarEvent)5846_storage)dyn_storage)": {
        "encoding": "mapping",
        "key": "t_address",
        "label": "mapping(address => struct BunyERC6551Account.PrivateCalendarEvent[])",
        "numberOfBytes": "32",
        "value": "t_array(t_struct(PrivateCalendarEvent)5846_storage)dyn_storage"
      },
      "t_mapping(t_address,t_uint256)": {
        "encoding": "mapping",
        "key": "t_address",
        "label": "mapping(address => uint256)",
        "numberOfBytes": "32",
        "value": "t_uint256"
      },
      "t_mapping(t_uint256,t_array(t_address)dyn_storage)": {
        "encoding": "mapping",
        "key": "t_uint256",
        "label": "mapping(uint256 => address[])",
        "numberOfBytes": "32",
        "value": "t_array(t_address)dyn_storage"
      },
      "t_mapping(t_uint256,t_struct(Deposit)5875_storage)": {
        "encoding": "mapping",
        "key": "t_uint256",
        "label": "mapping(uint256 => struct BunyERC6551Account.Deposit)",
        "numberOfBytes": "32",
        "value": "t_struct(Deposit)5875_storage"
      },
      "t_mapping(t_uint256,t_struct(NFTDeposit)5855_storage)": {
        "encoding": "mapping",
        "key": "t_uint256",
        "label": "mapping(uint256 => struct BunyERC6551Account.NFTDeposit)",
        "numberOfBytes": "32",
        "value": "t_struct(NFTDeposit)5855_storage"
      },
      "t_string_storage": {
        "encoding": "bytes",
        "label": "string",
        "numberOfBytes": "32"
      },
      "t_struct(CalendarEvent)5866_storage": {
        "encoding": "inplace",
        "label": "struct BunyERC6551Account.CalendarEvent",
        "members": [
          {
            "astId": 5857,
            "contract": "contracts/BunyERC6551Account.sol:BunyERC6551Account",
            "label": "title",
            "offset": 0,
            "slot": "0",
            "type": "t_string_storage"
          },
          {
            "astId": 5859,
            "contract": "contracts/BunyERC6551Account.sol:BunyERC6551Account",
            "label": "attendee",
            "offset": 0,
            "slot": "1",
            "type": "t_address"
          },
          {
            "astId": 5861,
            "contract": "contracts/BunyERC6551Account.sol:BunyERC6551Account",
            "label": "startTime",
            "offset": 0,
            "slot": "2",
            "type": "t_uint256"
          },
          {
            "astId": 5863,
            "contract": "contracts/BunyERC6551Account.sol:BunyERC6551Account",
            "label": "endTime",
            "offset": 0,
            "slot": "3",
            "type": "t_uint256"
          },
          {
            "astId": 5865,
            "contract": "contracts/BunyERC6551Account.sol:BunyERC6551Account",
            "label": "calendar",
            "offset": 0,
            "slot": "4",
            "type": "t_address"
          }
        ],
        "numberOfBytes": "160"
      },
      "t_struct(Deposit)5875_storage": {
        "encoding": "inplace",
        "label": "struct BunyERC6551Account.Deposit",
        "members": [
          {
            "astId": 5868,
            "contract": "contracts/BunyERC6551Account.sol:BunyERC6551Account",
            "label": "depositor",
            "offset": 0,
            "slot": "0",
            "type": "t_address"
          },
          {
            "astId": 5870,
            "contract": "contracts/BunyERC6551Account.sol:BunyERC6551Account",
            "label": "tokenAddress",
            "offset": 0,
            "slot": "1",
            "type": "t_address"
          },
          {
            "astId": 5872,
            "contract": "contracts/BunyERC6551Account.sol:BunyERC6551Account",
            "label": "amount",
            "offset": 0,
            "slot": "2",
            "type": "t_uint256"
          },
          {
            "astId": 5874,
            "contract": "contracts/BunyERC6551Account.sol:BunyERC6551Account",
            "label": "timestamp",
            "offset": 0,
            "slot": "3",
            "type": "t_uint256"
          }
        ],
        "numberOfBytes": "128"
      },
      "t_struct(NFTDeposit)5855_storage": {
        "encoding": "inplace",
        "label": "struct BunyERC6551Account.NFTDeposit",
        "members": [
          {
            "astId": 5848,
            "contract": "contracts/BunyERC6551Account.sol:BunyERC6551Account",
            "label": "depositor",
            "offset": 0,
            "slot": "0",
            "type": "t_address"
          },
          {
            "astId": 5850,
            "contract": "contracts/BunyERC6551Account.sol:BunyERC6551Account",
            "label": "nftContractAddress",
            "offset": 0,
            "slot": "1",
            "type": "t_address"
          },
          {
            "astId": 5852,
            "contract": "contracts/BunyERC6551Account.sol:BunyERC6551Account",
            "label": "tokenId",
            "offset": 0,
            "slot": "2",
            "type": "t_uint256"
          },
          {
            "astId": 5854,
            "contract": "contracts/BunyERC6551Account.sol:BunyERC6551Account",
            "label": "timestamp",
            "offset": 0,
            "slot": "3",
            "type": "t_uint256"
          }
        ],
        "numberOfBytes": "128"
      },
      "t_struct(PrivateCalendarEvent)5846_storage": {
        "encoding": "inplace",
        "label": "struct BunyERC6551Account.PrivateCalendarEvent",
        "members": [
          {
            "astId": 5839,
            "contract": "contracts/BunyERC6551Account.sol:BunyERC6551Account",
            "label": "title",
            "offset": 0,
            "slot": "0",
            "type": "t_string_storage"
          },
          {
            "astId": 5841,
            "contract": "contracts/BunyERC6551Account.sol:BunyERC6551Account",
            "label": "attendee",
            "offset": 0,
            "slot": "1",
            "type": "t_address"
          },
          {
            "astId": 5843,
            "contract": "contracts/BunyERC6551Account.sol:BunyERC6551Account",
            "label": "startTime",
            "offset": 0,
            "slot": "2",
            "type": "t_uint256"
          },
          {
            "astId": 5845,
            "contract": "contracts/BunyERC6551Account.sol:BunyERC6551Account",
            "label": "endTime",
            "offset": 0,
            "slot": "3",
            "type": "t_uint256"
          }
        ],
        "numberOfBytes": "128"
      },
      "t_uint256": {
        "encoding": "inplace",
        "label": "uint256",
        "numberOfBytes": "32"
      }
    }
  }
}